{
  "contractName": "BlindAuction",
  "abi": [
    {
      "inputs": [],
      "name": "auctionEndTime",
      "outputs": [
        {
          "internalType": "uint256",
          "name": "",
          "type": "uint256"
        }
      ],
      "stateMutability": "view",
      "type": "function",
      "constant": true
    },
    {
      "inputs": [],
      "name": "beneficiary",
      "outputs": [
        {
          "internalType": "address payable",
          "name": "",
          "type": "address"
        }
      ],
      "stateMutability": "view",
      "type": "function",
      "constant": true
    },
    {
      "inputs": [
        {
          "internalType": "uint256",
          "name": "",
          "type": "uint256"
        }
      ],
      "name": "bidders",
      "outputs": [
        {
          "internalType": "address payable",
          "name": "",
          "type": "address"
        }
      ],
      "stateMutability": "view",
      "type": "function",
      "constant": true
    },
    {
      "inputs": [],
      "name": "currentHighestBid",
      "outputs": [
        {
          "internalType": "uint256",
          "name": "",
          "type": "uint256"
        }
      ],
      "stateMutability": "view",
      "type": "function",
      "constant": true
    },
    {
      "inputs": [],
      "name": "currentHighestBidder",
      "outputs": [
        {
          "internalType": "address payable",
          "name": "",
          "type": "address"
        }
      ],
      "stateMutability": "view",
      "type": "function",
      "constant": true
    },
    {
      "inputs": [],
      "name": "highestBid",
      "outputs": [
        {
          "internalType": "uint256",
          "name": "",
          "type": "uint256"
        }
      ],
      "stateMutability": "view",
      "type": "function",
      "constant": true
    },
    {
      "inputs": [],
      "name": "highestBidder",
      "outputs": [
        {
          "internalType": "address payable",
          "name": "",
          "type": "address"
        }
      ],
      "stateMutability": "view",
      "type": "function",
      "constant": true
    },
    {
      "inputs": [
        {
          "internalType": "address",
          "name": "",
          "type": "address"
        }
      ],
      "name": "pendingReturns",
      "outputs": [
        {
          "internalType": "uint256",
          "name": "",
          "type": "uint256"
        }
      ],
      "stateMutability": "view",
      "type": "function",
      "constant": true
    },
    {
      "inputs": [],
      "name": "startingPrice",
      "outputs": [
        {
          "internalType": "uint256",
          "name": "",
          "type": "uint256"
        }
      ],
      "stateMutability": "view",
      "type": "function",
      "constant": true
    },
    {
      "inputs": [
        {
          "internalType": "uint256",
          "name": "_biddingTime",
          "type": "uint256"
        },
        {
          "internalType": "uint256",
          "name": "_startingPrice",
          "type": "uint256"
        }
      ],
      "name": "startAuction",
      "outputs": [],
      "stateMutability": "nonpayable",
      "type": "function"
    },
    {
      "inputs": [],
      "name": "getHighestBid",
      "outputs": [
        {
          "internalType": "uint256",
          "name": "",
          "type": "uint256"
        }
      ],
      "stateMutability": "view",
      "type": "function",
      "constant": true
    },
    {
      "inputs": [],
      "name": "getHighestBidder",
      "outputs": [
        {
          "internalType": "address",
          "name": "",
          "type": "address"
        }
      ],
      "stateMutability": "view",
      "type": "function",
      "constant": true
    },
    {
      "inputs": [],
      "name": "bid",
      "outputs": [],
      "stateMutability": "payable",
      "type": "function",
      "payable": true
    },
    {
      "inputs": [],
      "name": "auctionEnd",
      "outputs": [],
      "stateMutability": "nonpayable",
      "type": "function"
    }
  ],
  "bytecode": "0x60806040526000600960006101000a81548160ff0219169083151502179055506000600a5534801561003057600080fd5b50611372806100406000396000f3fe6080604052600436106100dc5760003560e01c80634fee13fc1161007f578063cc7d1a0f11610059578063cc7d1a0f1461026a578063cff29dfd14610295578063d57bde79146102d2578063d6fbf202146102fd576100dc565b80634fee13fc146101eb5780636e395bae1461021457806391f901571461023f576100dc565b80632a24f46c116100bb5780632a24f46c1461015357806338af3eed1461016a5780634979440a146101955780634b449cba146101c0576100dc565b80623495a4146100e15780631998aeef1461010c57806326b387bb14610116575b600080fd5b3480156100ed57600080fd5b506100f6610328565b6040516101039190611139565b60405180910390f35b610114610352565b005b34801561012257600080fd5b5061013d60048036038101906101389190610ef2565b610862565b60405161014a919061120f565b60405180910390f35b34801561015f57600080fd5b5061016861087a565b005b34801561017657600080fd5b5061017f610d93565b60405161018c9190611154565b60405180910390f35b3480156101a157600080fd5b506101aa610db7565b6040516101b7919061120f565b60405180910390f35b3480156101cc57600080fd5b506101d5610dc1565b6040516101e2919061120f565b60405180910390f35b3480156101f757600080fd5b50610212600480360381019061020d9190610f44565b610dc7565b005b34801561022057600080fd5b50610229610e2b565b6040516102369190611154565b60405180910390f35b34801561024b57600080fd5b50610254610e51565b6040516102619190611154565b60405180910390f35b34801561027657600080fd5b5061027f610e77565b60405161028c919061120f565b60405180910390f35b3480156102a157600080fd5b506102bc60048036038101906102b79190610f1b565b610e7d565b6040516102c99190611154565b60405180910390f35b3480156102de57600080fd5b506102e7610ebc565b6040516102f4919061120f565b60405180910390f35b34801561030957600080fd5b50610312610ec2565b60405161031f919061120f565b60405180910390f35b6000600460009054906101000a900473ffffffffffffffffffffffffffffffffffffffff16905090565b60008054906101000a900473ffffffffffffffffffffffffffffffffffffffff1673ffffffffffffffffffffffffffffffffffffffff163373ffffffffffffffffffffffffffffffffffffffff1614156103e1576040517f08c379a00000000000000000000000000000000000000000000000000000000081526004016103d8906111cf565b60405180910390fd5b6000600154421115610428576040517f08c379a000000000000000000000000000000000000000000000000000000000815260040161041f906111af565b60405180910390fd5b600254341161046c576040517f08c379a00000000000000000000000000000000000000000000000000000000081526004016104639061118f565b60405180910390fd5b60055434116105ff5734600860003373ffffffffffffffffffffffffffffffffffffffff1673ffffffffffffffffffffffffffffffffffffffff16815260200190815260200160002060008282546104c4919061123b565b9250508190555060005b6007805490508110156105905760078181548110610515577f4e487b7100000000000000000000000000000000000000000000000000000000600052603260045260246000fd5b9060005260206000200160009054906101000a900473ffffffffffffffffffffffffffffffffffffffff1673ffffffffffffffffffffffffffffffffffffffff163373ffffffffffffffffffffffffffffffffffffffff16141561057c5760019150610590565b600181610589919061123b565b90506104ce565b5060008114156105fe576007339080600181540180825580915050600190039060005260206000200160009091909190916101000a81548173ffffffffffffffffffffffffffffffffffffffff021916908373ffffffffffffffffffffffffffffffffffffffff1602179055505b5b6000600a54141561065b5733600360006101000a81548173ffffffffffffffffffffffffffffffffffffffff021916908373ffffffffffffffffffffffffffffffffffffffff160217905550346005819055506001600a819055505b60055434111561085f576000905060055460086000600360009054906101000a900473ffffffffffffffffffffffffffffffffffffffff1673ffffffffffffffffffffffffffffffffffffffff1673ffffffffffffffffffffffffffffffffffffffff16815260200190815260200160002060008282546106dc919061123b565b9250508190555060005b6007805490508110156107a8576007818154811061072d577f4e487b7100000000000000000000000000000000000000000000000000000000600052603260045260246000fd5b9060005260206000200160009054906101000a900473ffffffffffffffffffffffffffffffffffffffff1673ffffffffffffffffffffffffffffffffffffffff163373ffffffffffffffffffffffffffffffffffffffff16141561079457600191506107a8565b6001816107a1919061123b565b90506106e6565b506000811415610816576007339080600181540180825580915050600190039060005260206000200160009091909190916101000a81548173ffffffffffffffffffffffffffffffffffffffff021916908373ffffffffffffffffffffffffffffffffffffffff1602179055505b33600360006101000a81548173ffffffffffffffffffffffffffffffffffffffff021916908373ffffffffffffffffffffffffffffffffffffffff160217905550346005819055505b50565b60086020528060005260406000206000915090505481565b6001544210156108bf576040517f08c379a00000000000000000000000000000000000000000000000000000000081526004016108b6906111ef565b60405180910390fd5b600960009054906101000a900460ff161561090f576040517f08c379a00000000000000000000000000000000000000000000000000000000081526004016109069061116f565b60405180910390fd5b600047146109815760008054906101000a900473ffffffffffffffffffffffffffffffffffffffff1673ffffffffffffffffffffffffffffffffffffffff166108fc6005549081150290604051600060405180830381858888f1935050505015801561097f573d6000803e3d6000fd5b505b60005b600780549050811015610c4857600060086000600784815481106109d1577f4e487b7100000000000000000000000000000000000000000000000000000000600052603260045260246000fd5b9060005260206000200160009054906101000a900473ffffffffffffffffffffffffffffffffffffffff1673ffffffffffffffffffffffffffffffffffffffff1673ffffffffffffffffffffffffffffffffffffffff1681526020019081526020016000205414610c345760078181548110610a76577f4e487b7100000000000000000000000000000000000000000000000000000000600052603260045260246000fd5b9060005260206000200160009054906101000a900473ffffffffffffffffffffffffffffffffffffffff1673ffffffffffffffffffffffffffffffffffffffff166108fc6008600060078581548110610af8577f4e487b7100000000000000000000000000000000000000000000000000000000600052603260045260246000fd5b9060005260206000200160009054906101000a900473ffffffffffffffffffffffffffffffffffffffff1673ffffffffffffffffffffffffffffffffffffffff1673ffffffffffffffffffffffffffffffffffffffff168152602001908152602001600020549081150290604051600060405180830381858888f19350505050158015610b89573d6000803e3d6000fd5b5060006008600060078481548110610bca577f4e487b7100000000000000000000000000000000000000000000000000000000600052603260045260246000fd5b9060005260206000200160009054906101000a900473ffffffffffffffffffffffffffffffffffffffff1673ffffffffffffffffffffffffffffffffffffffff1673ffffffffffffffffffffffffffffffffffffffff168152602001908152602001600020819055505b600181610c41919061123b565b9050610984565b5060005b600780549050811015610cda576007805480610c91577f4e487b7100000000000000000000000000000000000000000000000000000000600052603160045260246000fd5b6001900381819060005260206000200160006101000a81549073ffffffffffffffffffffffffffffffffffffffff02191690559055600181610cd3919061123b565b9050610c4c565b50600360009054906101000a900473ffffffffffffffffffffffffffffffffffffffff16600460006101000a81548173ffffffffffffffffffffffffffffffffffffffff021916908373ffffffffffffffffffffffffffffffffffffffff16021790555060055460068190555060006005819055506000600360006101000a81548173ffffffffffffffffffffffffffffffffffffffff021916908373ffffffffffffffffffffffffffffffffffffffff160217905550565b60008054906101000a900473ffffffffffffffffffffffffffffffffffffffff1681565b6000600654905090565b60015481565b8142610dd3919061123b565b60018190555080600281905550336000806101000a81548173ffffffffffffffffffffffffffffffffffffffff021916908373ffffffffffffffffffffffffffffffffffffffff160217905550806005819055505050565b600460009054906101000a900473ffffffffffffffffffffffffffffffffffffffff1681565b600360009054906101000a900473ffffffffffffffffffffffffffffffffffffffff1681565b60065481565b60078181548110610e8d57600080fd5b906000526020600020016000915054906101000a900473ffffffffffffffffffffffffffffffffffffffff1681565b60055481565b60025481565b600081359050610ed78161130e565b92915050565b600081359050610eec81611325565b92915050565b600060208284031215610f0457600080fd5b6000610f1284828501610ec8565b91505092915050565b600060208284031215610f2d57600080fd5b6000610f3b84828501610edd565b91505092915050565b60008060408385031215610f5757600080fd5b6000610f6585828601610edd565b9250506020610f7685828601610edd565b9150509250929050565b610f89816112a3565b82525050565b610f9881611291565b82525050565b6000610fab60318361122a565b91507f5468652066756e6374696f6e2061756374696f6e456e6465642068617320616c60008301527f7265616479206265656e2063616c6c65640000000000000000000000000000006020830152604082019050919050565b600061101160248361122a565b91507f546865726520697320616c726561647920686967686572206f7220657175616c60008301527f20626964000000000000000000000000000000000000000000000000000000006020830152604082019050919050565b6000611077601d8361122a565b91507f5468652061756374696f6e2068617320616c726561647920656e6465640000006000830152602082019050919050565b60006110b760198361122a565b91507f53656c6c6572206e6f7420616c6c6f77656420746f20626964000000000000006000830152602082019050919050565b60006110f7601d8361122a565b91507f5468652061756374696f6e20686173206e6f7420656e646564207965740000006000830152602082019050919050565b611133816112d5565b82525050565b600060208201905061114e6000830184610f8f565b92915050565b60006020820190506111696000830184610f80565b92915050565b6000602082019050818103600083015261118881610f9e565b9050919050565b600060208201905081810360008301526111a881611004565b9050919050565b600060208201905081810360008301526111c88161106a565b9050919050565b600060208201905081810360008301526111e8816110aa565b9050919050565b60006020820190508181036000830152611208816110ea565b9050919050565b6000602082019050611224600083018461112a565b92915050565b600082825260208201905092915050565b6000611246826112d5565b9150611251836112d5565b9250827fffffffffffffffffffffffffffffffffffffffffffffffffffffffffffffffff03821115611286576112856112df565b5b828201905092915050565b600061129c826112b5565b9050919050565b60006112ae826112b5565b9050919050565b600073ffffffffffffffffffffffffffffffffffffffff82169050919050565b6000819050919050565b7f4e487b7100000000000000000000000000000000000000000000000000000000600052601160045260246000fd5b61131781611291565b811461132257600080fd5b50565b61132e816112d5565b811461133957600080fd5b5056fea26469706673582212209826ee5b93d399752efadb9e01da7399038b6120ffe7418d746b46cb0af4816964736f6c63430008000033",
  "immutableReferences": {},
  "source": "// SPDX-License-Identifier: GPL-3.0\r\n\r\npragma solidity ^0.8.0;\r\n\r\ncontract BlindAuction {\r\n    \r\n    \r\n    \r\n    address payable public beneficiary;\r\n    uint public auctionEndTime;\r\n    uint public startingPrice;\r\n    \r\n    address payable public highestBidder;\r\n    address payable public currentHighestBidder;\r\n    uint public highestBid;\r\n    uint public currentHighestBid;\r\n    \r\n    address  payable [] public bidders;\r\n    \r\n    mapping(address => uint) public pendingReturns;\r\n    \r\n    bool ended = false;\r\n    uint flag = 0;\r\n    \r\n    modifier notSeller(){\r\n        require(\r\n            \r\n            msg.sender != beneficiary,\r\n            \"Seller not allowed to bid\"\r\n        );\r\n        _;\r\n    }\r\n    \r\n    function startAuction(uint _biddingTime, uint _startingPrice) public{\r\n        \r\n        auctionEndTime = block.timestamp + _biddingTime;\r\n        startingPrice = _startingPrice;\r\n        beneficiary = payable(msg.sender);\r\n        highestBid = _startingPrice;\r\n        \r\n    }\r\n    \r\n   function getHighestBid() public view returns (uint){\r\n       \r\n       return currentHighestBid;\r\n   }\r\n    \r\n    function getHighestBidder() public view returns (address){\r\n       \r\n       return currentHighestBidder;\r\n    }\r\n   \r\n    \r\n    function bid() public notSeller  payable {\r\n        \r\n        uint temp = 0;\r\n        if(block.timestamp > auctionEndTime){\r\n            revert(\"The auction has already ended\");\r\n        }\r\n        \r\n        if(msg.value <= startingPrice){\r\n            revert(\"There is already higher or equal bid\");\r\n        }\r\n        \r\n        if(msg.value <= highestBid){\r\n            \r\n            pendingReturns[msg.sender] += msg.value;\r\n            for(uint i = 0; i < bidders.length; i+=1){\r\n                if(msg.sender == bidders[i]){\r\n                    temp = 1;\r\n                    break;\r\n                }\r\n            }\r\n            if(temp == 0){\r\n                bidders.push(payable(msg.sender));\r\n            }\r\n            \r\n        }\r\n        \r\n        if(flag == 0){\r\n\r\n            highestBidder = payable(msg.sender);\r\n            highestBid = msg.value;            \r\n            flag = 1;\r\n        }\r\n        if(msg.value > highestBid){\r\n            temp = 0;\r\n            \r\n            pendingReturns[highestBidder] += highestBid;\r\n            \r\n            for(uint i = 0; i < bidders.length; i+=1){\r\n                if(msg.sender == bidders[i]){\r\n                    temp = 1;\r\n                    break;\r\n                }\r\n            }\r\n            if(temp == 0){\r\n                bidders.push(payable(msg.sender));\r\n            }\r\n            \r\n            highestBidder = payable(msg.sender);\r\n            highestBid = msg.value;\r\n        }\r\n        \r\n    \r\n    }\r\n    \r\n    function auctionEnd() public {\r\n        \r\n        if(block.timestamp < auctionEndTime){\r\n            revert(\"The auction has not ended yet\");\r\n        }\r\n        \r\n        if(ended){\r\n            revert(\"The function auctionEnded has already been called\");\r\n        }\r\n    \r\n        if(address(this).balance != 0){\r\n            beneficiary.transfer(highestBid);\r\n        }\r\n        \r\n        for(uint i = 0; i < bidders.length; i+=1){\r\n            if(pendingReturns[bidders[i]] != 0){\r\n                bidders[i].transfer((pendingReturns[bidders[i]]));\r\n                pendingReturns[bidders[i]] = 0;\r\n            }\r\n        }\r\n        \r\n        for(uint i = 0; i < bidders.length; i+=1){\r\n            bidders.pop();\r\n        }\r\n        \r\n        currentHighestBidder = highestBidder;\r\n        currentHighestBid = highestBid;\r\n\r\n        highestBid = 0;\r\n        highestBidder = payable(0x0000000000000000000000000000000000000000);\r\n    }\r\n    \r\n}",
  "sourcePath": "C:/Users/HP/Desktop/bootstrap-project/open-auction/contracts/BlindAuction.sol",
  "compiler": {
    "name": "solc",
    "version": "0.8.0+commit.c7dfd78e.Emscripten.clang"
  },
  "schemaVersion": "3.4.1",
  "updatedAt": "2021-05-23T11:33:09.943Z",
  "networkType": "ethereum",
  "devdoc": {
    "kind": "dev",
    "methods": {},
    "version": 1
  },
  "userdoc": {
    "kind": "user",
    "methods": {},
    "version": 1
  }
}