{
  "contractName": "DirectSell",
  "abi": [
    {
      "anonymous": false,
      "inputs": [],
      "name": "Aborted",
      "type": "event"
    },
    {
      "anonymous": false,
      "inputs": [],
      "name": "ItemReceived",
      "type": "event"
    },
    {
      "anonymous": false,
      "inputs": [],
      "name": "PurchaseConfirmed",
      "type": "event"
    },
    {
      "inputs": [],
      "name": "buyer",
      "outputs": [
        {
          "internalType": "address payable",
          "name": "",
          "type": "address"
        }
      ],
      "stateMutability": "view",
      "type": "function",
      "constant": true
    },
    {
      "inputs": [],
      "name": "seller",
      "outputs": [
        {
          "internalType": "address payable",
          "name": "",
          "type": "address"
        }
      ],
      "stateMutability": "view",
      "type": "function",
      "constant": true
    },
    {
      "inputs": [],
      "name": "state",
      "outputs": [
        {
          "internalType": "enum DirectSell.State",
          "name": "",
          "type": "uint8"
        }
      ],
      "stateMutability": "view",
      "type": "function",
      "constant": true
    },
    {
      "inputs": [],
      "name": "value",
      "outputs": [
        {
          "internalType": "uint256",
          "name": "",
          "type": "uint256"
        }
      ],
      "stateMutability": "view",
      "type": "function",
      "constant": true
    },
    {
      "inputs": [],
      "name": "sellerTrans",
      "outputs": [],
      "stateMutability": "payable",
      "type": "function",
      "payable": true
    },
    {
      "inputs": [],
      "name": "abort",
      "outputs": [],
      "stateMutability": "nonpayable",
      "type": "function"
    },
    {
      "inputs": [],
      "name": "purchaseConfirmed",
      "outputs": [],
      "stateMutability": "payable",
      "type": "function",
      "payable": true
    },
    {
      "inputs": [],
      "name": "confirmReceived",
      "outputs": [],
      "stateMutability": "nonpayable",
      "type": "function"
    }
  ],
  "bytecode": "0x608060405234801561001057600080fd5b50610d78806100206000396000f3fe60806040526004361061007b5760003560e01c806373fac6f01161004e57806373fac6f014610118578063764326661461012f578063c19d93fb14610139578063da7498ea146101645761007b565b806308551a531461008057806335a063b4146100ab5780633fa4f245146100c25780637150d8ae146100ed575b600080fd5b34801561008c57600080fd5b5061009561016e565b6040516100a29190610ad3565b60405180910390f35b3480156100b757600080fd5b506100c0610194565b005b3480156100ce57600080fd5b506100d76103cf565b6040516100e49190610b89565b60405180910390f35b3480156100f957600080fd5b506101026103d5565b60405161010f9190610ad3565b60405180910390f35b34801561012457600080fd5b5061012d6103fb565b005b6101376106f2565b005b34801561014557600080fd5b5061014e610923565b60405161015b9190610aee565b60405180910390f35b61016c610936565b005b600160009054906101000a900473ffffffffffffffffffffffffffffffffffffffff1681565b600160009054906101000a900473ffffffffffffffffffffffffffffffffffffffff1673ffffffffffffffffffffffffffffffffffffffff163373ffffffffffffffffffffffffffffffffffffffff1614610224576040517f08c379a000000000000000000000000000000000000000000000000000000000815260040161021b90610b49565b60405180910390fd5b600080600281111561025f577f4e487b7100000000000000000000000000000000000000000000000000000000600052602160045260246000fd5b600260149054906101000a900460ff1660028111156102a7577f4e487b7100000000000000000000000000000000000000000000000000000000600052602160045260246000fd5b146102e7576040517f08c379a00000000000000000000000000000000000000000000000000000000081526004016102de90610b29565b60405180910390fd5b7f72c874aeff0b183a56e2b79c71b46e1aed4dee5e09862134b8821ba2fddbf8bf60405160405180910390a160028060146101000a81548160ff0219169083600281111561035e577f4e487b7100000000000000000000000000000000000000000000000000000000600052602160045260246000fd5b0217905550600160009054906101000a900473ffffffffffffffffffffffffffffffffffffffff1673ffffffffffffffffffffffffffffffffffffffff166108fc479081150290604051600060405180830381858888f193505050501580156103cb573d6000803e3d6000fd5b5050565b60005481565b600260009054906101000a900473ffffffffffffffffffffffffffffffffffffffff1681565b600260009054906101000a900473ffffffffffffffffffffffffffffffffffffffff1673ffffffffffffffffffffffffffffffffffffffff163373ffffffffffffffffffffffffffffffffffffffff161461048b576040517f08c379a000000000000000000000000000000000000000000000000000000000815260040161048290610b09565b60405180910390fd5b60018060028111156104c6577f4e487b7100000000000000000000000000000000000000000000000000000000600052602160045260246000fd5b600260149054906101000a900460ff16600281111561050e577f4e487b7100000000000000000000000000000000000000000000000000000000600052602160045260246000fd5b1461054e576040517f08c379a000000000000000000000000000000000000000000000000000000000815260040161054590610b29565b60405180910390fd5b7fe89152acd703c9d8c7d28829d443260b411454d45394e7995815140c8cbcbcf760405160405180910390a160028060146101000a81548160ff021916908360028111156105c5577f4e487b7100000000000000000000000000000000000000000000000000000000600052602160045260246000fd5b0217905550600260009054906101000a900473ffffffffffffffffffffffffffffffffffffffff1673ffffffffffffffffffffffffffffffffffffffff166108fc6000549081150290604051600060405180830381858888f19350505050158015610634573d6000803e3d6000fd5b50600160009054906101000a900473ffffffffffffffffffffffffffffffffffffffff1673ffffffffffffffffffffffffffffffffffffffff166108fc479081150290604051600060405180830381858888f1935050505015801561069d573d6000803e3d6000fd5b506000600260146101000a81548160ff021916908360028111156106ea577f4e487b7100000000000000000000000000000000000000000000000000000000600052602160045260246000fd5b021790555050565b600160009054906101000a900473ffffffffffffffffffffffffffffffffffffffff1673ffffffffffffffffffffffffffffffffffffffff163373ffffffffffffffffffffffffffffffffffffffff161415610783576040517f08c379a000000000000000000000000000000000000000000000000000000000815260040161077a90610b69565b60405180910390fd5b60008060028111156107be577f4e487b7100000000000000000000000000000000000000000000000000000000600052602160045260246000fd5b600260149054906101000a900460ff166002811115610806577f4e487b7100000000000000000000000000000000000000000000000000000000600052602160045260246000fd5b14610846576040517f08c379a000000000000000000000000000000000000000000000000000000000815260040161083d90610b29565b60405180910390fd5b60005460026108559190610be6565b34148061086157600080fd5b7fd5d55c8a68912e9a110618df8d5e2e83b8d83211c57a8ddd1203df92885dc88160405160405180910390a133600260006101000a81548173ffffffffffffffffffffffffffffffffffffffff021916908373ffffffffffffffffffffffffffffffffffffffff1602179055506001600260146101000a81548160ff0219169083600281111561091a577f4e487b7100000000000000000000000000000000000000000000000000000000600052602160045260246000fd5b02179055505050565b600260149054906101000a900460ff1681565b33600160006101000a81548173ffffffffffffffffffffffffffffffffffffffff021916908373ffffffffffffffffffffffffffffffffffffffff1602179055506002346109849190610bb5565b60008190555034600054600261099a9190610be6565b146109a457600080fd5b565b6109af81610c40565b82525050565b6109be81610c8f565b82525050565b60006109d1601983610ba4565b91507f4f6e6c792062757965722063616e2063616c6c20746869732e000000000000006000830152602082019050919050565b6000610a11600e83610ba4565b91507f496e76616c69642073746174652e0000000000000000000000000000000000006000830152602082019050919050565b6000610a51601a83610ba4565b91507f4f6e6c792073656c6c65722063616e2063616c6c20746869732e0000000000006000830152602082019050919050565b6000610a91601883610ba4565b91507f4f6e6c792042757965722063616e2043616c6c207468697300000000000000006000830152602082019050919050565b610acd81610c85565b82525050565b6000602082019050610ae860008301846109a6565b92915050565b6000602082019050610b0360008301846109b5565b92915050565b60006020820190508181036000830152610b22816109c4565b9050919050565b60006020820190508181036000830152610b4281610a04565b9050919050565b60006020820190508181036000830152610b6281610a44565b9050919050565b60006020820190508181036000830152610b8281610a84565b9050919050565b6000602082019050610b9e6000830184610ac4565b92915050565b600082825260208201905092915050565b6000610bc082610c85565b9150610bcb83610c85565b925082610bdb57610bda610cd0565b5b828204905092915050565b6000610bf182610c85565b9150610bfc83610c85565b9250817fffffffffffffffffffffffffffffffffffffffffffffffffffffffffffffffff0483118215151615610c3557610c34610ca1565b5b828202905092915050565b6000610c4b82610c65565b9050919050565b6000819050610c6082610d2e565b919050565b600073ffffffffffffffffffffffffffffffffffffffff82169050919050565b6000819050919050565b6000610c9a82610c52565b9050919050565b7f4e487b7100000000000000000000000000000000000000000000000000000000600052601160045260246000fd5b7f4e487b7100000000000000000000000000000000000000000000000000000000600052601260045260246000fd5b7f4e487b7100000000000000000000000000000000000000000000000000000000600052602160045260246000fd5b60038110610d3f57610d3e610cff565b5b5056fea26469706673582212206a8fe740ca86710310ff1510d7f8bf3498ae23f52c79a157847464cdeee9b04064736f6c63430008000033",
  "immutableReferences": {},
  "source": "\n// SPDX-License-Identifier: GPL-3.0\n\npragma solidity ^0.8.0;\n\ncontract DirectSell {\n    \n    uint public value;\n    address payable public seller;\n    address payable public buyer;\n    enum State {Created, Locked, Inactive}\n\n\n    State public state;\n\n    modifier notSeller(){\n    \n        require(\n            msg.sender != seller,\n            \"Only Buyer can Call this\"\n        );\n        _;\n    }\n    \n    function sellerTrans() public payable{\n        \n        seller = payable(msg.sender);\n        value = msg.value / 2;\n        \n        require(2 * value == msg.value);\n    }\n    \n    modifier condition(bool _condition){\n        require(_condition);\n        _;\n    }\n    \n    modifier onlyBuyer() {\n        require(\n            msg.sender == buyer,\n            \"Only buyer can call this.\"\n        );\n        _;\n    }\n    \n    modifier onlySeller() {\n        require(\n            msg.sender == seller,\n            \"Only seller can call this.\"\n        );\n        _;\n    }\n    \n    modifier inState(State _state) {\n        require(\n            state == _state,\n            \"Invalid state.\"\n        );\n        _;\n    }\n    \n    event Aborted();\n    event PurchaseConfirmed();\n    event ItemReceived();\n    \n    function abort() public onlySeller inState(State.Created){\n    \n        emit Aborted();\n        \n        state = State.Inactive;\n        seller.transfer(address(this).balance);\n    }\n    \n    function purchaseConfirmed() \n        public \n        notSeller\n        inState(State.Created) \n        condition(msg.value == (2 * value)) \n        payable\n    {\n        \n        emit PurchaseConfirmed();\n        buyer = payable(msg.sender);\n        state = State.Locked;\n    }\n    \n    \n    function confirmReceived()\n        external\n        onlyBuyer\n        inState(State.Locked)\n    {\n        emit ItemReceived();\n\n        state = State.Inactive;\n\n        buyer.transfer(value);\n        seller.transfer(address(this).balance);\n        \n        state = State.Created;\n    }\n}\n\n\n\n\n\n",
  "sourcePath": "C:/Users/HP/Desktop/bootstrap-project/open-auction/contracts/DirectSell.sol",
  "compiler": {
    "name": "solc",
    "version": "0.8.0+commit.c7dfd78e.Emscripten.clang"
  },
  "schemaVersion": "3.4.1",
  "updatedAt": "2021-05-23T11:33:03.813Z",
  "networkType": "ethereum",
  "devdoc": {
    "kind": "dev",
    "methods": {},
    "version": 1
  },
  "userdoc": {
    "kind": "user",
    "methods": {},
    "version": 1
  }
}