{
  "contractName": "OpenAuction",
  "abi": [
    {
      "inputs": [],
      "name": "auctionEndTime",
      "outputs": [
        {
          "internalType": "uint256",
          "name": "",
          "type": "uint256"
        }
      ],
      "stateMutability": "view",
      "type": "function",
      "constant": true
    },
    {
      "inputs": [],
      "name": "beneficiary",
      "outputs": [
        {
          "internalType": "address payable",
          "name": "",
          "type": "address"
        }
      ],
      "stateMutability": "view",
      "type": "function",
      "constant": true
    },
    {
      "inputs": [],
      "name": "highestBid",
      "outputs": [
        {
          "internalType": "uint256",
          "name": "",
          "type": "uint256"
        }
      ],
      "stateMutability": "view",
      "type": "function",
      "constant": true
    },
    {
      "inputs": [],
      "name": "highestBidder",
      "outputs": [
        {
          "internalType": "address payable",
          "name": "",
          "type": "address"
        }
      ],
      "stateMutability": "view",
      "type": "function",
      "constant": true
    },
    {
      "inputs": [],
      "name": "startingPrice",
      "outputs": [
        {
          "internalType": "uint256",
          "name": "",
          "type": "uint256"
        }
      ],
      "stateMutability": "view",
      "type": "function",
      "constant": true
    },
    {
      "inputs": [
        {
          "internalType": "uint256",
          "name": "_biddingTime",
          "type": "uint256"
        },
        {
          "internalType": "uint256",
          "name": "_startingPrice",
          "type": "uint256"
        }
      ],
      "name": "startAuction",
      "outputs": [],
      "stateMutability": "nonpayable",
      "type": "function"
    },
    {
      "inputs": [],
      "name": "bid",
      "outputs": [],
      "stateMutability": "payable",
      "type": "function",
      "payable": true
    },
    {
      "inputs": [],
      "name": "getHighestBid",
      "outputs": [
        {
          "internalType": "uint256",
          "name": "",
          "type": "uint256"
        }
      ],
      "stateMutability": "nonpayable",
      "type": "function"
    },
    {
      "inputs": [],
      "name": "getHighestBidder",
      "outputs": [
        {
          "internalType": "address",
          "name": "",
          "type": "address"
        }
      ],
      "stateMutability": "nonpayable",
      "type": "function"
    },
    {
      "inputs": [],
      "name": "auctionEnd",
      "outputs": [],
      "stateMutability": "nonpayable",
      "type": "function"
    }
  ],
  "bytecode": "0x608060405234801561001057600080fd5b506108d5806100206000396000f3fe6080604052600436106100905760003560e01c80634b449cba116100595780634b449cba146101375780634fee13fc1461016257806391f901571461018b578063d57bde79146101b6578063d6fbf202146101e157610090565b80623495a4146100955780631998aeef146100c05780632a24f46c146100ca57806338af3eed146100e15780634979440a1461010c575b600080fd5b3480156100a157600080fd5b506100aa61020c565b6040516100b791906106f3565b60405180910390f35b6100c8610236565b005b3480156100d657600080fd5b506100df610410565b005b3480156100ed57600080fd5b506100f66104c5565b604051610103919061070e565b60405180910390f35b34801561011857600080fd5b506101216104e9565b60405161012e9190610789565b60405180910390f35b34801561014357600080fd5b5061014c6104f3565b6040516101599190610789565b60405180910390f35b34801561016e57600080fd5b50610189600480360381019061018491906105a4565b6104f9565b005b34801561019757600080fd5b506101a061055d565b6040516101ad919061070e565b60405180910390f35b3480156101c257600080fd5b506101cb610583565b6040516101d89190610789565b60405180910390f35b3480156101ed57600080fd5b506101f6610589565b6040516102039190610789565b60405180910390f35b6000600360009054906101000a900473ffffffffffffffffffffffffffffffffffffffff16905090565b60008054906101000a900473ffffffffffffffffffffffffffffffffffffffff1673ffffffffffffffffffffffffffffffffffffffff163373ffffffffffffffffffffffffffffffffffffffff1614156102c5576040517f08c379a00000000000000000000000000000000000000000000000000000000081526004016102bc90610749565b60405180910390fd5b60015442111561030a576040517f08c379a000000000000000000000000000000000000000000000000000000000815260040161030190610769565b60405180910390fd5b600454341161034e576040517f08c379a000000000000000000000000000000000000000000000000000000000815260040161034590610729565b60405180910390fd5b60025460045411156103c657600360009054906101000a900473ffffffffffffffffffffffffffffffffffffffff1673ffffffffffffffffffffffffffffffffffffffff166108fc6004549081150290604051600060405180830381858888f193505050501580156103c4573d6000803e3d6000fd5b505b33600360006101000a81548173ffffffffffffffffffffffffffffffffffffffff021916908373ffffffffffffffffffffffffffffffffffffffff16021790555034600481905550565b60008054906101000a900473ffffffffffffffffffffffffffffffffffffffff1673ffffffffffffffffffffffffffffffffffffffff166108fc6004549081150290604051600060405180830381858888f19350505050158015610478573d6000803e3d6000fd5b5060006004819055506000600360006101000a81548173ffffffffffffffffffffffffffffffffffffffff021916908373ffffffffffffffffffffffffffffffffffffffff160217905550565b60008054906101000a900473ffffffffffffffffffffffffffffffffffffffff1681565b6000600454905090565b60015481565b814261050591906107b5565b60018190555080600281905550336000806101000a81548173ffffffffffffffffffffffffffffffffffffffff021916908373ffffffffffffffffffffffffffffffffffffffff160217905550806004819055505050565b600360009054906101000a900473ffffffffffffffffffffffffffffffffffffffff1681565b60045481565b60025481565b60008135905061059e81610888565b92915050565b600080604083850312156105b757600080fd5b60006105c58582860161058f565b92505060206105d68582860161058f565b9150509250929050565b6105e98161081d565b82525050565b6105f88161080b565b82525050565b600061060b6024836107a4565b91507f546865726520697320616c726561647920686967686572206f7220657175616c60008301527f20626964000000000000000000000000000000000000000000000000000000006020830152604082019050919050565b60006106716018836107a4565b91507f4f6e6c792042757965722063616e2063616c6c207468697300000000000000006000830152602082019050919050565b60006106b1601d836107a4565b91507f5468652061756374696f6e2068617320616c726561647920656e6465640000006000830152602082019050919050565b6106ed8161084f565b82525050565b600060208201905061070860008301846105ef565b92915050565b600060208201905061072360008301846105e0565b92915050565b60006020820190508181036000830152610742816105fe565b9050919050565b6000602082019050818103600083015261076281610664565b9050919050565b60006020820190508181036000830152610782816106a4565b9050919050565b600060208201905061079e60008301846106e4565b92915050565b600082825260208201905092915050565b60006107c08261084f565b91506107cb8361084f565b9250827fffffffffffffffffffffffffffffffffffffffffffffffffffffffffffffffff03821115610800576107ff610859565b5b828201905092915050565b60006108168261082f565b9050919050565b60006108288261082f565b9050919050565b600073ffffffffffffffffffffffffffffffffffffffff82169050919050565b6000819050919050565b7f4e487b7100000000000000000000000000000000000000000000000000000000600052601160045260246000fd5b6108918161084f565b811461089c57600080fd5b5056fea264697066735822122012411a04b6fc067147d3add7b5c6ee598afc84edfea4e7bd5636062027dd1dd964736f6c63430008000033",
  "immutableReferences": {},
  "source": "// SPDX-License-Identifier: GPL-3.0\r\n\r\npragma solidity ^0.8.0;\r\n\r\n\r\ncontract OpenAuction {\r\n    \r\n    \r\n    address payable public beneficiary;\r\n    uint public auctionEndTime;\r\n    uint public startingPrice;\r\n    \r\n    address payable public highestBidder;    \r\n    uint public highestBid;  \r\n\r\n    modifier notSeller(){\r\n    \r\n        require(\r\n            msg.sender != beneficiary,\r\n            \"Only Buyer can call this\"\r\n        );\r\n        _;\r\n    }  \r\n    \r\n    function startAuction(uint _biddingTime, uint _startingPrice) public{\r\n        \r\n        auctionEndTime = block.timestamp + _biddingTime;\r\n        startingPrice = _startingPrice;\r\n        beneficiary = payable(msg.sender);\r\n        highestBid = _startingPrice;\r\n        \r\n    }\r\n\r\n    \r\n    function bid() public notSeller payable {\r\n        \r\n        if(block.timestamp > auctionEndTime){\r\n            revert(\"The auction has already ended\");\r\n        }\r\n        \r\n        if(msg.value <= highestBid){\r\n            revert(\"There is already higher or equal bid\");\r\n        }\r\n        \r\n        if(highestBid > startingPrice){\r\n            (highestBidder).transfer(highestBid);  //If error then remove payable\r\n        }\r\n\r\n        highestBidder = payable(msg.sender);\r\n        highestBid = msg.value;\r\n    }\r\n    \r\n    function getHighestBid() public returns(uint) {\r\n        return highestBid;   \r\n    }\r\n\r\n    function getHighestBidder() public returns(address) {\r\n        return highestBidder;\r\n    } \r\n  \r\n    \r\n    function auctionEnd() public {\r\n        \r\n        beneficiary.transfer(highestBid);\r\n        highestBid = 0;\r\n        highestBidder = payable(0x0000000000000000000000000000000000000000);\r\n\r\n    }\r\n    \r\n}",
  "sourcePath": "C:/Users/HP/Desktop/bootstrap-project/open-auction/contracts/OpenAuction.sol",
  "compiler": {
    "name": "solc",
    "version": "0.8.0+commit.c7dfd78e.Emscripten.clang"
  },
  "schemaVersion": "3.4.1",
  "updatedAt": "2021-05-23T11:33:06.746Z",
  "networkType": "ethereum",
  "devdoc": {
    "kind": "dev",
    "methods": {},
    "version": 1
  },
  "userdoc": {
    "kind": "user",
    "methods": {},
    "version": 1
  }
}