{
  "contractName": "ProductEnlistDirectSell",
  "abi": [
    {
      "inputs": [],
      "name": "description",
      "outputs": [
        {
          "internalType": "string",
          "name": "",
          "type": "string"
        }
      ],
      "stateMutability": "view",
      "type": "function",
      "constant": true
    },
    {
      "inputs": [],
      "name": "name",
      "outputs": [
        {
          "internalType": "string",
          "name": "",
          "type": "string"
        }
      ],
      "stateMutability": "view",
      "type": "function",
      "constant": true
    },
    {
      "inputs": [],
      "name": "seller",
      "outputs": [
        {
          "internalType": "address",
          "name": "",
          "type": "address"
        }
      ],
      "stateMutability": "view",
      "type": "function",
      "constant": true
    },
    {
      "inputs": [],
      "name": "startingPrice",
      "outputs": [
        {
          "internalType": "uint256",
          "name": "",
          "type": "uint256"
        }
      ],
      "stateMutability": "view",
      "type": "function",
      "constant": true
    },
    {
      "inputs": [
        {
          "internalType": "string",
          "name": "_name",
          "type": "string"
        },
        {
          "internalType": "uint256",
          "name": "_startingPrice",
          "type": "uint256"
        },
        {
          "internalType": "string",
          "name": "_description",
          "type": "string"
        }
      ],
      "name": "addProduct",
      "outputs": [],
      "stateMutability": "nonpayable",
      "type": "function"
    },
    {
      "inputs": [],
      "name": "getProduct",
      "outputs": [
        {
          "internalType": "address",
          "name": "",
          "type": "address"
        },
        {
          "internalType": "string",
          "name": "",
          "type": "string"
        },
        {
          "internalType": "uint256",
          "name": "",
          "type": "uint256"
        },
        {
          "internalType": "string",
          "name": "",
          "type": "string"
        }
      ],
      "stateMutability": "nonpayable",
      "type": "function"
    },
    {
      "inputs": [],
      "name": "getSellerAddress",
      "outputs": [
        {
          "internalType": "address",
          "name": "",
          "type": "address"
        }
      ],
      "stateMutability": "nonpayable",
      "type": "function"
    },
    {
      "inputs": [
        {
          "internalType": "uint256",
          "name": "_id",
          "type": "uint256"
        }
      ],
      "name": "removeProduct",
      "outputs": [
        {
          "internalType": "bool",
          "name": "",
          "type": "bool"
        }
      ],
      "stateMutability": "nonpayable",
      "type": "function"
    }
  ],
  "bytecode": "0x608060405234801561001057600080fd5b506109c3806100206000396000f3fe608060405234801561001057600080fd5b50600436106100885760003560e01c80637284e4161161005b5780637284e4161461011a57806384b09e86146101385780638f29695a14610156578063d6fbf2021461017257610088565b806306fdde031461008d57806308551a53146100ab5780634ba20050146100c95780635ee95cae146100ea575b600080fd5b610095610190565b6040516100a29190610791565b60405180910390f35b6100b361021e565b6040516100c09190610708565b60405180910390f35b6100d1610242565b6040516100e19493929190610723565b60405180910390f35b61010460048036038101906100ff9190610679565b610398565b6040516101119190610776565b60405180910390f35b6101226103a3565b60405161012f9190610791565b60405180910390f35b610140610431565b60405161014d9190610708565b60405180910390f35b610170600480360381019061016b91906105fa565b61045a565b005b61017a6104d4565b60405161018791906107b3565b60405180910390f35b6001805461019d906108d5565b80601f01602080910402602001604051908101604052809291908181526020018280546101c9906108d5565b80156102165780601f106101eb57610100808354040283529160200191610216565b820191906000526020600020905b8154815290600101906020018083116101f957829003601f168201915b505050505081565b60008054906101000a900473ffffffffffffffffffffffffffffffffffffffff1681565b600060606000606060008054906101000a900473ffffffffffffffffffffffffffffffffffffffff166001600254600382805461027e906108d5565b80601f01602080910402602001604051908101604052809291908181526020018280546102aa906108d5565b80156102f75780601f106102cc576101008083540402835291602001916102f7565b820191906000526020600020905b8154815290600101906020018083116102da57829003601f168201915b5050505050925080805461030a906108d5565b80601f0160208091040260200160405190810160405280929190818152602001828054610336906108d5565b80156103835780601f1061035857610100808354040283529160200191610383565b820191906000526020600020905b81548152906001019060200180831161036657829003601f168201915b50505050509050935093509350935090919293565b600060019050919050565b600380546103b0906108d5565b80601f01602080910402602001604051908101604052809291908181526020018280546103dc906108d5565b80156104295780601f106103fe57610100808354040283529160200191610429565b820191906000526020600020905b81548152906001019060200180831161040c57829003601f168201915b505050505081565b60008060009054906101000a900473ffffffffffffffffffffffffffffffffffffffff16905090565b336000806101000a81548173ffffffffffffffffffffffffffffffffffffffff021916908373ffffffffffffffffffffffffffffffffffffffff16021790555082600190805190602001906104b09291906104da565b508160028190555080600390805190602001906104ce9291906104da565b50505050565b60025481565b8280546104e6906108d5565b90600052602060002090601f016020900481019282610508576000855561054f565b82601f1061052157805160ff191683800117855561054f565b8280016001018555821561054f579182015b8281111561054e578251825591602001919060010190610533565b5b50905061055c9190610560565b5090565b5b80821115610579576000816000905550600101610561565b5090565b600061059061058b846107ff565b6107ce565b9050828152602081018484840111156105a857600080fd5b6105b3848285610893565b509392505050565b600082601f8301126105cc57600080fd5b81356105dc84826020860161057d565b91505092915050565b6000813590506105f481610976565b92915050565b60008060006060848603121561060f57600080fd5b600084013567ffffffffffffffff81111561062957600080fd5b610635868287016105bb565b9350506020610646868287016105e5565b925050604084013567ffffffffffffffff81111561066357600080fd5b61066f868287016105bb565b9150509250925092565b60006020828403121561068b57600080fd5b6000610699848285016105e5565b91505092915050565b6106ab8161084b565b82525050565b6106ba8161085d565b82525050565b60006106cb8261082f565b6106d5818561083a565b93506106e58185602086016108a2565b6106ee81610965565b840191505092915050565b61070281610889565b82525050565b600060208201905061071d60008301846106a2565b92915050565b600060808201905061073860008301876106a2565b818103602083015261074a81866106c0565b905061075960408301856106f9565b818103606083015261076b81846106c0565b905095945050505050565b600060208201905061078b60008301846106b1565b92915050565b600060208201905081810360008301526107ab81846106c0565b905092915050565b60006020820190506107c860008301846106f9565b92915050565b6000604051905081810181811067ffffffffffffffff821117156107f5576107f4610936565b5b8060405250919050565b600067ffffffffffffffff82111561081a57610819610936565b5b601f19601f8301169050602081019050919050565b600081519050919050565b600082825260208201905092915050565b600061085682610869565b9050919050565b60008115159050919050565b600073ffffffffffffffffffffffffffffffffffffffff82169050919050565b6000819050919050565b82818337600083830152505050565b60005b838110156108c05780820151818401526020810190506108a5565b838111156108cf576000848401525b50505050565b600060028204905060018216806108ed57607f821691505b6020821081141561090157610900610907565b5b50919050565b7f4e487b7100000000000000000000000000000000000000000000000000000000600052602260045260246000fd5b7f4e487b7100000000000000000000000000000000000000000000000000000000600052604160045260246000fd5b6000601f19601f8301169050919050565b61097f81610889565b811461098a57600080fd5b5056fea2646970667358221220dda1d92ebf78af9ea87df706970931d2fd7be56e03974b1392fe37fe8f4bb8df64736f6c63430008000033",
  "immutableReferences": {},
  "source": "// SPDX-License-Identifier: GPL-3.0\r\n\r\npragma solidity ^0.8.0;\r\n\r\ncontract ProductEnlistDirectSell {\r\n    \r\n    \r\n    address public seller;\r\n    string public name;\r\n    uint public startingPrice;\r\n    string public description;\r\n    \r\n    \r\n    function addProduct(string memory _name, uint _startingPrice, string memory _description) public {\r\n        \r\n        seller = msg.sender;\r\n        name = _name;\r\n        startingPrice = _startingPrice;\r\n        description = _description;\r\n    }\r\n    \r\n    function getProduct() public returns(address, string memory, uint, string memory){\r\n        \r\n        return (seller, name, startingPrice, description); \r\n    }\r\n    \r\n    \r\n    function getSellerAddress() public returns(address){\r\n        \r\n        return seller;\r\n    }\r\n    \r\n    function removeProduct(uint _id) public returns(bool) {\r\n        \r\n        return true;\r\n    }\r\n    \r\n}",
  "sourcePath": "C:/Users/HP/Desktop/bootstrap-project/open-auction/contracts/ProductEnlistDirectSell.sol",
  "compiler": {
    "name": "solc",
    "version": "0.8.0+commit.c7dfd78e.Emscripten.clang"
  },
  "schemaVersion": "3.4.1",
  "updatedAt": "2021-05-23T11:33:05.367Z",
  "networkType": "ethereum",
  "devdoc": {
    "kind": "dev",
    "methods": {},
    "version": 1
  },
  "userdoc": {
    "kind": "user",
    "methods": {},
    "version": 1
  }
}