{
  "contractName": "ProductEnlistOpenAuction",
  "abi": [
    {
      "inputs": [],
      "name": "description",
      "outputs": [
        {
          "internalType": "string",
          "name": "",
          "type": "string"
        }
      ],
      "stateMutability": "view",
      "type": "function",
      "constant": true
    },
    {
      "inputs": [],
      "name": "duration",
      "outputs": [
        {
          "internalType": "uint256",
          "name": "",
          "type": "uint256"
        }
      ],
      "stateMutability": "view",
      "type": "function",
      "constant": true
    },
    {
      "inputs": [],
      "name": "name",
      "outputs": [
        {
          "internalType": "string",
          "name": "",
          "type": "string"
        }
      ],
      "stateMutability": "view",
      "type": "function",
      "constant": true
    },
    {
      "inputs": [],
      "name": "seller",
      "outputs": [
        {
          "internalType": "address",
          "name": "",
          "type": "address"
        }
      ],
      "stateMutability": "view",
      "type": "function",
      "constant": true
    },
    {
      "inputs": [],
      "name": "startingPrice",
      "outputs": [
        {
          "internalType": "uint256",
          "name": "",
          "type": "uint256"
        }
      ],
      "stateMutability": "view",
      "type": "function",
      "constant": true
    },
    {
      "inputs": [
        {
          "internalType": "string",
          "name": "_name",
          "type": "string"
        },
        {
          "internalType": "uint256",
          "name": "_startingPrice",
          "type": "uint256"
        },
        {
          "internalType": "string",
          "name": "_description",
          "type": "string"
        },
        {
          "internalType": "uint256",
          "name": "_duration",
          "type": "uint256"
        }
      ],
      "name": "addProduct",
      "outputs": [],
      "stateMutability": "nonpayable",
      "type": "function"
    },
    {
      "inputs": [],
      "name": "getProduct",
      "outputs": [
        {
          "internalType": "address",
          "name": "",
          "type": "address"
        },
        {
          "internalType": "string",
          "name": "",
          "type": "string"
        },
        {
          "internalType": "uint256",
          "name": "",
          "type": "uint256"
        },
        {
          "internalType": "string",
          "name": "",
          "type": "string"
        },
        {
          "internalType": "uint256",
          "name": "",
          "type": "uint256"
        }
      ],
      "stateMutability": "nonpayable",
      "type": "function"
    }
  ],
  "bytecode": "0x608060405234801561001057600080fd5b5061092f806100206000396000f3fe608060405234801561001057600080fd5b506004361061007d5760003560e01c80633a2a925c1161005b5780633a2a925c146100dc5780634ba20050146100f85780637284e4161461011a578063d6fbf202146101385761007d565b806306fdde031461008257806308551a53146100a05780630fb5a6b4146100be575b600080fd5b61008a610156565b6040516100979190610709565b60405180910390f35b6100a86101e4565b6040516100b5919061068d565b60405180910390f35b6100c6610208565b6040516100d3919061072b565b60405180910390f35b6100f660048036038101906100f191906105a3565b61020e565b005b610100610290565b6040516101119594939291906106a8565b60405180910390f35b6101226103ef565b60405161012f9190610709565b60405180910390f35b61014061047d565b60405161014d919061072b565b60405180910390f35b6001805461016390610841565b80601f016020809104026020016040519081016040528092919081815260200182805461018f90610841565b80156101dc5780601f106101b1576101008083540402835291602001916101dc565b820191906000526020600020905b8154815290600101906020018083116101bf57829003601f168201915b505050505081565b60008054906101000a900473ffffffffffffffffffffffffffffffffffffffff1681565b60045481565b336000806101000a81548173ffffffffffffffffffffffffffffffffffffffff021916908373ffffffffffffffffffffffffffffffffffffffff1602179055508360019080519060200190610264929190610483565b50826002819055508160039080519060200190610282929190610483565b508060048190555050505050565b600060606000606060008060009054906101000a900473ffffffffffffffffffffffffffffffffffffffff16600160025460036004548380546102d290610841565b80601f01602080910402602001604051908101604052809291908181526020018280546102fe90610841565b801561034b5780601f106103205761010080835404028352916020019161034b565b820191906000526020600020905b81548152906001019060200180831161032e57829003601f168201915b5050505050935081805461035e90610841565b80601f016020809104026020016040519081016040528092919081815260200182805461038a90610841565b80156103d75780601f106103ac576101008083540402835291602001916103d7565b820191906000526020600020905b8154815290600101906020018083116103ba57829003601f168201915b50505050509150945094509450945094509091929394565b600380546103fc90610841565b80601f016020809104026020016040519081016040528092919081815260200182805461042890610841565b80156104755780601f1061044a57610100808354040283529160200191610475565b820191906000526020600020905b81548152906001019060200180831161045857829003601f168201915b505050505081565b60025481565b82805461048f90610841565b90600052602060002090601f0160209004810192826104b157600085556104f8565b82601f106104ca57805160ff19168380011785556104f8565b828001600101855582156104f8579182015b828111156104f75782518255916020019190600101906104dc565b5b5090506105059190610509565b5090565b5b8082111561052257600081600090555060010161050a565b5090565b600061053961053484610777565b610746565b90508281526020810184848401111561055157600080fd5b61055c8482856107ff565b509392505050565b600082601f83011261057557600080fd5b8135610585848260208601610526565b91505092915050565b60008135905061059d816108e2565b92915050565b600080600080608085870312156105b957600080fd5b600085013567ffffffffffffffff8111156105d357600080fd5b6105df87828801610564565b94505060206105f08782880161058e565b935050604085013567ffffffffffffffff81111561060d57600080fd5b61061987828801610564565b925050606061062a8782880161058e565b91505092959194509250565b61063f816107c3565b82525050565b6000610650826107a7565b61065a81856107b2565b935061066a81856020860161080e565b610673816108d1565b840191505092915050565b610687816107f5565b82525050565b60006020820190506106a26000830184610636565b92915050565b600060a0820190506106bd6000830188610636565b81810360208301526106cf8187610645565b90506106de604083018661067e565b81810360608301526106f08185610645565b90506106ff608083018461067e565b9695505050505050565b600060208201905081810360008301526107238184610645565b905092915050565b6000602082019050610740600083018461067e565b92915050565b6000604051905081810181811067ffffffffffffffff8211171561076d5761076c6108a2565b5b8060405250919050565b600067ffffffffffffffff821115610792576107916108a2565b5b601f19601f8301169050602081019050919050565b600081519050919050565b600082825260208201905092915050565b60006107ce826107d5565b9050919050565b600073ffffffffffffffffffffffffffffffffffffffff82169050919050565b6000819050919050565b82818337600083830152505050565b60005b8381101561082c578082015181840152602081019050610811565b8381111561083b576000848401525b50505050565b6000600282049050600182168061085957607f821691505b6020821081141561086d5761086c610873565b5b50919050565b7f4e487b7100000000000000000000000000000000000000000000000000000000600052602260045260246000fd5b7f4e487b7100000000000000000000000000000000000000000000000000000000600052604160045260246000fd5b6000601f19601f8301169050919050565b6108eb816107f5565b81146108f657600080fd5b5056fea2646970667358221220a531f6b8bb9bc0dcc2124cb7629f29a33d293082836c81f274def04e341d219e64736f6c63430008000033",
  "immutableReferences": {},
  "source": "// SPDX-License-Identifier: GPL-3.0\r\n\r\npragma solidity ^0.8.0;\r\n\r\ncontract ProductEnlistOpenAuction {\r\n    \r\n    \r\n    address public seller;\r\n    string public name;\r\n    uint public startingPrice;\r\n    string public description;\r\n    uint public duration;\r\n    \r\n    \r\n    function addProduct(string memory _name, uint _startingPrice, string memory _description, uint _duration) public {\r\n        \r\n        seller = msg.sender;\r\n        name = _name;\r\n        startingPrice = _startingPrice;\r\n        description = _description;\r\n        duration = _duration;\r\n    }\r\n    \r\n    function getProduct() public returns(address, string memory, uint, string memory, uint){\r\n        \r\n        return (seller, name, startingPrice, description, duration); \r\n    }\r\n    \r\n}",
  "sourcePath": "C:/Users/HP/Desktop/bootstrap-project/open-auction/contracts/ProductEnlistOpenAuction.sol",
  "compiler": {
    "name": "solc",
    "version": "0.8.0+commit.c7dfd78e.Emscripten.clang"
  },
  "schemaVersion": "3.4.1",
  "updatedAt": "2021-05-23T11:33:08.269Z",
  "networkType": "ethereum",
  "devdoc": {
    "kind": "dev",
    "methods": {},
    "version": 1
  },
  "userdoc": {
    "kind": "user",
    "methods": {},
    "version": 1
  }
}